{
  "contractName": "Mint",
  "abi": [
    {
      "inputs": [
        {
          "internalType": "address",
          "name": "collateral",
          "type": "address"
        }
      ],
      "stateMutability": "nonpayable",
      "type": "constructor"
    },
    {
      "anonymous": false,
      "inputs": [
        {
          "indexed": true,
          "internalType": "address",
          "name": "previousOwner",
          "type": "address"
        },
        {
          "indexed": true,
          "internalType": "address",
          "name": "newOwner",
          "type": "address"
        }
      ],
      "name": "OwnershipTransferred",
      "type": "event"
    },
    {
      "inputs": [],
      "name": "collateralToken",
      "outputs": [
        {
          "internalType": "address",
          "name": "",
          "type": "address"
        }
      ],
      "stateMutability": "view",
      "type": "function"
    },
    {
      "inputs": [],
      "name": "owner",
      "outputs": [
        {
          "internalType": "address",
          "name": "",
          "type": "address"
        }
      ],
      "stateMutability": "view",
      "type": "function"
    },
    {
      "inputs": [],
      "name": "renounceOwnership",
      "outputs": [],
      "stateMutability": "nonpayable",
      "type": "function"
    },
    {
      "inputs": [
        {
          "internalType": "address",
          "name": "newOwner",
          "type": "address"
        }
      ],
      "name": "transferOwnership",
      "outputs": [],
      "stateMutability": "nonpayable",
      "type": "function"
    },
    {
      "inputs": [
        {
          "internalType": "address",
          "name": "assetToken",
          "type": "address"
        },
        {
          "internalType": "uint256",
          "name": "minCollateralRatio",
          "type": "uint256"
        },
        {
          "internalType": "address",
          "name": "priceFeed",
          "type": "address"
        }
      ],
      "name": "registerAsset",
      "outputs": [],
      "stateMutability": "nonpayable",
      "type": "function"
    },
    {
      "inputs": [
        {
          "internalType": "uint256",
          "name": "positionIndex",
          "type": "uint256"
        }
      ],
      "name": "getPosition",
      "outputs": [
        {
          "internalType": "address",
          "name": "",
          "type": "address"
        },
        {
          "internalType": "uint256",
          "name": "",
          "type": "uint256"
        },
        {
          "internalType": "address",
          "name": "",
          "type": "address"
        },
        {
          "internalType": "uint256",
          "name": "",
          "type": "uint256"
        }
      ],
      "stateMutability": "view",
      "type": "function"
    },
    {
      "inputs": [
        {
          "internalType": "uint256",
          "name": "collateralAmount",
          "type": "uint256"
        },
        {
          "internalType": "address",
          "name": "assetToken",
          "type": "address"
        },
        {
          "internalType": "uint256",
          "name": "collateralRatio",
          "type": "uint256"
        }
      ],
      "name": "getMintAmount",
      "outputs": [
        {
          "internalType": "uint256",
          "name": "",
          "type": "uint256"
        }
      ],
      "stateMutability": "view",
      "type": "function"
    },
    {
      "inputs": [
        {
          "internalType": "address",
          "name": "assetToken",
          "type": "address"
        }
      ],
      "name": "checkRegistered",
      "outputs": [
        {
          "internalType": "bool",
          "name": "",
          "type": "bool"
        }
      ],
      "stateMutability": "view",
      "type": "function"
    },
    {
      "inputs": [
        {
          "internalType": "uint256",
          "name": "collateralAmount",
          "type": "uint256"
        },
        {
          "internalType": "address",
          "name": "assetToken",
          "type": "address"
        },
        {
          "internalType": "uint256",
          "name": "collateralRatio",
          "type": "uint256"
        }
      ],
      "name": "openPosition",
      "outputs": [],
      "stateMutability": "nonpayable",
      "type": "function"
    },
    {
      "inputs": [
        {
          "internalType": "uint256",
          "name": "positionIndex",
          "type": "uint256"
        }
      ],
      "name": "closePosition",
      "outputs": [],
      "stateMutability": "nonpayable",
      "type": "function"
    },
    {
      "inputs": [
        {
          "internalType": "uint256",
          "name": "positionIndex",
          "type": "uint256"
        },
        {
          "internalType": "uint256",
          "name": "collateralAmount",
          "type": "uint256"
        }
      ],
      "name": "deposit",
      "outputs": [],
      "stateMutability": "nonpayable",
      "type": "function"
    },
    {
      "inputs": [
        {
          "internalType": "uint256",
          "name": "positionIndex",
          "type": "uint256"
        },
        {
          "internalType": "uint256",
          "name": "withdrawAmount",
          "type": "uint256"
        }
      ],
      "name": "withdraw",
      "outputs": [],
      "stateMutability": "nonpayable",
      "type": "function"
    },
    {
      "inputs": [
        {
          "internalType": "uint256",
          "name": "positionIndex",
          "type": "uint256"
        },
        {
          "internalType": "uint256",
          "name": "mintAmount",
          "type": "uint256"
        }
      ],
      "name": "mint",
      "outputs": [],
      "stateMutability": "nonpayable",
      "type": "function"
    },
    {
      "inputs": [
        {
          "internalType": "uint256",
          "name": "positionIndex",
          "type": "uint256"
        },
        {
          "internalType": "uint256",
          "name": "burnAmount",
          "type": "uint256"
        }
      ],
      "name": "burn",
      "outputs": [],
      "stateMutability": "nonpayable",
      "type": "function"
    }
  ],
  "bytecode": "0x60806040523480156200001157600080fd5b506040516200278d3803806200278d833981810160405281019062000037919062000182565b620000576200004b6200009f60201b60201c565b620000a760201b60201c565b80600460006101000a81548173ffffffffffffffffffffffffffffffffffffffff021916908373ffffffffffffffffffffffffffffffffffffffff1602179055505062000207565b600033905090565b60008060009054906101000a900473ffffffffffffffffffffffffffffffffffffffff169050816000806101000a81548173ffffffffffffffffffffffffffffffffffffffff021916908373ffffffffffffffffffffffffffffffffffffffff1602179055508173ffffffffffffffffffffffffffffffffffffffff168173ffffffffffffffffffffffffffffffffffffffff167f8be0079c531659141344cd1fd0a4f28419497f9722a3daafe3b4186f6b6457e060405160405180910390a35050565b6000815190506200017c81620001ed565b92915050565b6000602082840312156200019b576200019a620001e8565b5b6000620001ab848285016200016b565b91505092915050565b6000620001c182620001c8565b9050919050565b600073ffffffffffffffffffffffffffffffffffffffff82169050919050565b600080fd5b620001f881620001b4565b81146200020457600080fd5b50565b61257680620002176000396000f3fe608060405234801561001057600080fd5b50600436106100ea5760003560e01c8063b2016bd41161008c578063e2bbb15811610066578063e2bbb1581461020d578063eb02c30114610229578063ee2574af1461025c578063f2fde38b1461028c576100ea565b8063b2016bd4146101b7578063b390c0ab146101d5578063df8665d7146101f1576100ea565b80634846cd9d116100c85780634846cd9d14610143578063715018a6146101735780638da5cb5b1461017d578063a126d6011461019b576100ea565b8063064526bb146100ef5780631b2ef1ca1461010b578063441a3e7014610127575b600080fd5b61010960048036038101906101049190611958565b6102a8565b005b61012560048036038101906101209190611a98565b6105cf565b005b610141600480360381019061013c9190611a98565b61080a565b005b61015d60048036038101906101589190611a45565b610a66565b60405161016a9190611eab565b60405180910390f35b61017b610c15565b005b610185610c9d565b6040516101929190611c90565b60405180910390f35b6101b560048036038101906101b09190611a18565b610cc6565b005b6101bf610f36565b6040516101cc9190611c90565b60405180910390f35b6101ef60048036038101906101ea9190611a98565b610f5c565b005b61020b60048036038101906102069190611a45565b6110d9565b005b61022760048036038101906102229190611a98565b61135f565b005b610243600480360381019061023e9190611a18565b61158a565b6040516102539493929190611d0b565b60405180910390f35b6102766004803603810190610271919061192b565b61164f565b6040516102839190611d50565b60405180910390f35b6102a660048036038101906102a1919061192b565b6116e9565b005b6102b06117e1565b73ffffffffffffffffffffffffffffffffffffffff166102ce610c9d565b73ffffffffffffffffffffffffffffffffffffffff1614610324576040517f08c379a000000000000000000000000000000000000000000000000000000000815260040161031b90611deb565b60405180910390fd5b600073ffffffffffffffffffffffffffffffffffffffff168373ffffffffffffffffffffffffffffffffffffffff161415610394576040517f08c379a000000000000000000000000000000000000000000000000000000000815260040161038b90611e2b565b60405180910390fd5b60018210156103d8576040517f08c379a00000000000000000000000000000000000000000000000000000000081526004016103cf90611e8b565b60405180910390fd5b600073ffffffffffffffffffffffffffffffffffffffff16600160008573ffffffffffffffffffffffffffffffffffffffff1673ffffffffffffffffffffffffffffffffffffffff16815260200190815260200160002060000160009054906101000a900473ffffffffffffffffffffffffffffffffffffffff1673ffffffffffffffffffffffffffffffffffffffff16146104a9576040517f08c379a00000000000000000000000000000000000000000000000000000000081526004016104a090611d6b565b60405180910390fd5b60405180606001604052808473ffffffffffffffffffffffffffffffffffffffff1681526020018381526020018273ffffffffffffffffffffffffffffffffffffffff16815250600160008573ffffffffffffffffffffffffffffffffffffffff1673ffffffffffffffffffffffffffffffffffffffff16815260200190815260200160002060008201518160000160006101000a81548173ffffffffffffffffffffffffffffffffffffffff021916908373ffffffffffffffffffffffffffffffffffffffff1602179055506020820151816001015560408201518160020160006101000a81548173ffffffffffffffffffffffffffffffffffffffff021916908373ffffffffffffffffffffffffffffffffffffffff160217905550905050505050565b6002548210610613576040517f08c379a000000000000000000000000000000000000000000000000000000000815260040161060a90611dab565b60405180910390fd5b60006003600084815260200190815260200160002090503373ffffffffffffffffffffffffffffffffffffffff168160010160009054906101000a900473ffffffffffffffffffffffffffffffffffffffff1673ffffffffffffffffffffffffffffffffffffffff16146106bc576040517f08c379a00000000000000000000000000000000000000000000000000000000081526004016106b390611e4b565b60405180910390fd5b6000600160008360030160009054906101000a900473ffffffffffffffffffffffffffffffffffffffff1673ffffffffffffffffffffffffffffffffffffffff1673ffffffffffffffffffffffffffffffffffffffff168152602001908152602001600020905060008383600401546107359190611ed7565b9050816001015481846002015461074c9190611f2d565b101561078d576040517f08c379a000000000000000000000000000000000000000000000000000000000815260040161078490611dcb565b60405180910390fd5b3073ffffffffffffffffffffffffffffffffffffffff166340c10f1933866040518363ffffffff1660e01b81526004016107c8929190611ce2565b600060405180830381600087803b1580156107e257600080fd5b505af11580156107f6573d6000803e3d6000fd5b505050508083600401819055505050505050565b600254821061084e576040517f08c379a000000000000000000000000000000000000000000000000000000000815260040161084590611dab565b60405180910390fd5b60006003600084815260200190815260200160002090503373ffffffffffffffffffffffffffffffffffffffff168160010160009054906101000a900473ffffffffffffffffffffffffffffffffffffffff1673ffffffffffffffffffffffffffffffffffffffff16146108f7576040517f08c379a00000000000000000000000000000000000000000000000000000000081526004016108ee90611e4b565b60405180910390fd5b60008282600201546109099190612129565b90506000600160008460030160009054906101000a900473ffffffffffffffffffffffffffffffffffffffff1673ffffffffffffffffffffffffffffffffffffffff1673ffffffffffffffffffffffffffffffffffffffff168152602001908152602001600020905080600101548360040154836109879190611f2d565b10156109c8576040517f08c379a00000000000000000000000000000000000000000000000000000000081526004016109bf90611dcb565b60405180910390fd5b3073ffffffffffffffffffffffffffffffffffffffff1663a9059cbb33846040518363ffffffff1660e01b8152600401610a03929190611ce2565b602060405180830381600087803b158015610a1d57600080fd5b505af1158015610a31573d6000803e3d6000fd5b505050506040513d601f19601f82011682018060405250810190610a5591906119ab565b508183600201819055505050505050565b600080600160008573ffffffffffffffffffffffffffffffffffffffff1673ffffffffffffffffffffffffffffffffffffffff168152602001908152602001600020905060008160020160009054906101000a900473ffffffffffffffffffffffffffffffffffffffff1673ffffffffffffffffffffffffffffffffffffffff16638e15f4736040518163ffffffff1660e01b8152600401604080518083038186803b158015610b1557600080fd5b505afa158015610b29573d6000803e3d6000fd5b505050506040513d601f19601f82011682018060405250810190610b4d91906119d8565b50905060008573ffffffffffffffffffffffffffffffffffffffff1663313ce5676040518163ffffffff1660e01b815260040160206040518083038186803b158015610b9857600080fd5b505afa158015610bac573d6000803e3d6000fd5b505050506040513d601f19601f82011682018060405250810190610bd09190611ad8565b9050600085838360ff16600a610be69190611fb1565b8a610bf191906120cf565b610bfb9190611f2d565b610c059190611f2d565b9050809450505050509392505050565b610c1d6117e1565b73ffffffffffffffffffffffffffffffffffffffff16610c3b610c9d565b73ffffffffffffffffffffffffffffffffffffffff1614610c91576040517f08c379a0000000000000000000000000000000000000000000000000000000008152600401610c8890611deb565b60405180910390fd5b610c9b60006117e9565b565b60008060009054906101000a900473ffffffffffffffffffffffffffffffffffffffff16905090565b6002548110610d0a576040517f08c379a0000000000000000000000000000000000000000000000000000000008152600401610d0190611dab565b60405180910390fd5b60006003600083815260200190815260200160002090503373ffffffffffffffffffffffffffffffffffffffff168160010160009054906101000a900473ffffffffffffffffffffffffffffffffffffffff1673ffffffffffffffffffffffffffffffffffffffff1614610db3576040517f08c379a0000000000000000000000000000000000000000000000000000000008152600401610daa90611e4b565b60405180910390fd5b3073ffffffffffffffffffffffffffffffffffffffff16639dc29fac3383600401546040518363ffffffff1660e01b8152600401610df2929190611ce2565b600060405180830381600087803b158015610e0c57600080fd5b505af1158015610e20573d6000803e3d6000fd5b505050503073ffffffffffffffffffffffffffffffffffffffff1663a9059cbb3383600201546040518363ffffffff1660e01b8152600401610e63929190611ce2565b602060405180830381600087803b158015610e7d57600080fd5b505af1158015610e91573d6000803e3d6000fd5b505050506040513d601f19601f82011682018060405250810190610eb591906119ab565b50600360008381526020019081526020016000206000808201600090556001820160006101000a81549073ffffffffffffffffffffffffffffffffffffffff021916905560028201600090556003820160006101000a81549073ffffffffffffffffffffffffffffffffffffffff0219169055600482016000905550505050565b600460009054906101000a900473ffffffffffffffffffffffffffffffffffffffff1681565b6002548210610fa0576040517f08c379a0000000000000000000000000000000000000000000000000000000008152600401610f9790611dab565b60405180910390fd5b60006003600084815260200190815260200160002090503373ffffffffffffffffffffffffffffffffffffffff168160010160009054906101000a900473ffffffffffffffffffffffffffffffffffffffff1673ffffffffffffffffffffffffffffffffffffffff1614611049576040517f08c379a000000000000000000000000000000000000000000000000000000000815260040161104090611e4b565b60405180910390fd5b600082826004015461105b9190612129565b90503073ffffffffffffffffffffffffffffffffffffffff16639dc29fac33856040518363ffffffff1660e01b8152600401611098929190611ce2565b600060405180830381600087803b1580156110b257600080fd5b505af11580156110c6573d6000803e3d6000fd5b5050505080826004018190555050505050565b6110e28261164f565b611121576040517f08c379a000000000000000000000000000000000000000000000000000000000815260040161111890611e0b565b60405180910390fd5b6000600160008473ffffffffffffffffffffffffffffffffffffffff1673ffffffffffffffffffffffffffffffffffffffff168152602001908152602001600020905080600101548210156111ab576040517f08c379a00000000000000000000000000000000000000000000000000000000081526004016111a290611e6b565b60405180910390fd5b60006111b8858585610a66565b90503073ffffffffffffffffffffffffffffffffffffffff166340c10f1933836040518363ffffffff1660e01b81526004016111f5929190611ce2565b600060405180830381600087803b15801561120f57600080fd5b505af1158015611223573d6000803e3d6000fd5b505050506040518060a0016040528060025481526020013373ffffffffffffffffffffffffffffffffffffffff1681526020018681526020018573ffffffffffffffffffffffffffffffffffffffff168152602001828152506003600060025481526020019081526020016000206000820151816000015560208201518160010160006101000a81548173ffffffffffffffffffffffffffffffffffffffff021916908373ffffffffffffffffffffffffffffffffffffffff1602179055506040820151816002015560608201518160030160006101000a81548173ffffffffffffffffffffffffffffffffffffffff021916908373ffffffffffffffffffffffffffffffffffffffff1602179055506080820151816004015590505060026000815480929190611353906121bc565b91905055505050505050565b60025482106113a3576040517f08c379a000000000000000000000000000000000000000000000000000000000815260040161139a90611dab565b60405180910390fd5b60006003600084815260200190815260200160002090503373ffffffffffffffffffffffffffffffffffffffff168160010160009054906101000a900473ffffffffffffffffffffffffffffffffffffffff1673ffffffffffffffffffffffffffffffffffffffff161461144c576040517f08c379a000000000000000000000000000000000000000000000000000000000815260040161144390611e4b565b60405180910390fd5b3373ffffffffffffffffffffffffffffffffffffffff1663095ea7b330846040518363ffffffff1660e01b8152600401611487929190611ce2565b602060405180830381600087803b1580156114a157600080fd5b505af11580156114b5573d6000803e3d6000fd5b505050506040513d601f19601f820116820180604052508101906114d991906119ab565b503073ffffffffffffffffffffffffffffffffffffffff166323b872dd3330856040518463ffffffff1660e01b815260040161151793929190611cab565b602060405180830381600087803b15801561153157600080fd5b505af1158015611545573d6000803e3d6000fd5b505050506040513d601f19601f8201168201806040525081019061156991906119ab565b508181600201600082825461157e9190611ed7565b92505081905550505050565b60008060008060025485106115d4576040517f08c379a00000000000000000000000000000000000000000000000000000000081526004016115cb90611dab565b60405180910390fd5b60006003600087815260200190815260200160002090508060010160009054906101000a900473ffffffffffffffffffffffffffffffffffffffff1681600201548260030160009054906101000a900473ffffffffffffffffffffffffffffffffffffffff1683600401549450945094509450509193509193565b60008173ffffffffffffffffffffffffffffffffffffffff16600160008473ffffffffffffffffffffffffffffffffffffffff1673ffffffffffffffffffffffffffffffffffffffff16815260200190815260200160002060000160009054906101000a900473ffffffffffffffffffffffffffffffffffffffff1673ffffffffffffffffffffffffffffffffffffffff16149050919050565b6116f16117e1565b73ffffffffffffffffffffffffffffffffffffffff1661170f610c9d565b73ffffffffffffffffffffffffffffffffffffffff1614611765576040517f08c379a000000000000000000000000000000000000000000000000000000000815260040161175c90611deb565b60405180910390fd5b600073ffffffffffffffffffffffffffffffffffffffff168173ffffffffffffffffffffffffffffffffffffffff1614156117d5576040517f08c379a00000000000000000000000000000000000000000000000000000000081526004016117cc90611d8b565b60405180910390fd5b6117de816117e9565b50565b600033905090565b60008060009054906101000a900473ffffffffffffffffffffffffffffffffffffffff169050816000806101000a81548173ffffffffffffffffffffffffffffffffffffffff021916908373ffffffffffffffffffffffffffffffffffffffff1602179055508173ffffffffffffffffffffffffffffffffffffffff168173ffffffffffffffffffffffffffffffffffffffff167f8be0079c531659141344cd1fd0a4f28419497f9722a3daafe3b4186f6b6457e060405160405180910390a35050565b6000813590506118bc816124cd565b92915050565b6000815190506118d1816124e4565b92915050565b6000815190506118e6816124fb565b92915050565b6000813590506118fb81612512565b92915050565b60008151905061191081612512565b92915050565b60008151905061192581612529565b92915050565b60006020828403121561194157611940612263565b5b600061194f848285016118ad565b91505092915050565b60008060006060848603121561197157611970612263565b5b600061197f868287016118ad565b9350506020611990868287016118ec565b92505060406119a1868287016118ad565b9150509250925092565b6000602082840312156119c1576119c0612263565b5b60006119cf848285016118c2565b91505092915050565b600080604083850312156119ef576119ee612263565b5b60006119fd858286016118d7565b9250506020611a0e85828601611901565b9150509250929050565b600060208284031215611a2e57611a2d612263565b5b6000611a3c848285016118ec565b91505092915050565b600080600060608486031215611a5e57611a5d612263565b5b6000611a6c868287016118ec565b9350506020611a7d868287016118ad565b9250506040611a8e868287016118ec565b9150509250925092565b60008060408385031215611aaf57611aae612263565b5b6000611abd858286016118ec565b9250506020611ace858286016118ec565b9150509250929050565b600060208284031215611aee57611aed612263565b5b6000611afc84828501611916565b91505092915050565b611b0e8161215d565b82525050565b611b1d8161216f565b82525050565b6000611b30601c83611ec6565b9150611b3b82612275565b602082019050919050565b6000611b53602683611ec6565b9150611b5e8261229e565b604082019050919050565b6000611b76600d83611ec6565b9150611b81826122ed565b602082019050919050565b6000611b99602383611ec6565b9150611ba482612316565b604082019050919050565b6000611bbc602083611ec6565b9150611bc782612365565b602082019050919050565b6000611bdf601783611ec6565b9150611bea8261238e565b602082019050919050565b6000611c02601a83611ec6565b9150611c0d826123b7565b602082019050919050565b6000611c25602883611ec6565b9150611c30826123e0565b604082019050919050565b6000611c48603183611ec6565b9150611c538261242f565b604082019050919050565b6000611c6b602c83611ec6565b9150611c768261247e565b604082019050919050565b611c8a816121a5565b82525050565b6000602082019050611ca56000830184611b05565b92915050565b6000606082019050611cc06000830186611b05565b611ccd6020830185611b05565b611cda6040830184611c81565b949350505050565b6000604082019050611cf76000830185611b05565b611d046020830184611c81565b9392505050565b6000608082019050611d206000830187611b05565b611d2d6020830186611c81565b611d3a6040830185611b05565b611d476060830184611c81565b95945050505050565b6000602082019050611d656000830184611b14565b92915050565b60006020820190508181036000830152611d8481611b23565b9050919050565b60006020820190508181036000830152611da481611b46565b9050919050565b60006020820190508181036000830152611dc481611b69565b9050919050565b60006020820190508181036000830152611de481611b8c565b9050919050565b60006020820190508181036000830152611e0481611baf565b9050919050565b60006020820190508181036000830152611e2481611bd2565b9050919050565b60006020820190508181036000830152611e4481611bf5565b9050919050565b60006020820190508181036000830152611e6481611c18565b9050919050565b60006020820190508181036000830152611e8481611c3b565b9050919050565b60006020820190508181036000830152611ea481611c5e565b9050919050565b6000602082019050611ec06000830184611c81565b92915050565b600082825260208201905092915050565b6000611ee2826121a5565b9150611eed836121a5565b9250827fffffffffffffffffffffffffffffffffffffffffffffffffffffffffffffffff03821115611f2257611f21612205565b5b828201905092915050565b6000611f38826121a5565b9150611f43836121a5565b925082611f5357611f52612234565b5b828204905092915050565b6000808291508390505b6001851115611fa857808604811115611f8457611f83612205565b5b6001851615611f935780820291505b8081029050611fa185612268565b9450611f68565b94509492505050565b6000611fbc826121a5565b9150611fc7836121a5565b9250611ff47fffffffffffffffffffffffffffffffffffffffffffffffffffffffffffffffff8484611ffc565b905092915050565b60008261200c57600190506120c8565b8161201a57600090506120c8565b8160018114612030576002811461203a57612069565b60019150506120c8565b60ff84111561204c5761204b612205565b5b8360020a91508482111561206357612062612205565b5b506120c8565b5060208310610133831016604e8410600b841016171561209e5782820a90508381111561209957612098612205565b5b6120c8565b6120ab8484846001611f5e565b925090508184048111156120c2576120c1612205565b5b81810290505b9392505050565b60006120da826121a5565b91506120e5836121a5565b9250817fffffffffffffffffffffffffffffffffffffffffffffffffffffffffffffffff048311821515161561211e5761211d612205565b5b828202905092915050565b6000612134826121a5565b915061213f836121a5565b92508282101561215257612151612205565b5b828203905092915050565b600061216882612185565b9050919050565b60008115159050919050565b6000819050919050565b600073ffffffffffffffffffffffffffffffffffffffff82169050919050565b6000819050919050565b600060ff82169050919050565b60006121c7826121a5565b91507fffffffffffffffffffffffffffffffffffffffffffffffffffffffffffffffff8214156121fa576121f9612205565b5b600182019050919050565b7f4e487b7100000000000000000000000000000000000000000000000000000000600052601160045260246000fd5b7f4e487b7100000000000000000000000000000000000000000000000000000000600052601260045260246000fd5b600080fd5b60008160011c9050919050565b7f41737365742077617320616c7265616479207265676973746572656400000000600082015250565b7f4f776e61626c653a206e6577206f776e657220697320746865207a65726f206160008201527f6464726573730000000000000000000000000000000000000000000000000000602082015250565b7f496e76616c696420696e64657800000000000000000000000000000000000000600082015250565b7f636f6c6c61746572616c20726174696f20676f65732062656c6f77207468652060008201527f4d43520000000000000000000000000000000000000000000000000000000000602082015250565b7f4f776e61626c653a2063616c6c6572206973206e6f7420746865206f776e6572600082015250565b7f4173736574206973206e6f742072656769737465726564000000000000000000600082015250565b7f496e76616c6964206173736574546f6b656e2061646472657373000000000000600082015250565b7f6d6573736167652073656e64657220646f6573206e6f74206f776e207468652060008201527f706f736974696f6e000000000000000000000000000000000000000000000000602082015250565b7f696e70757420636f6c6c61746572616c20726174696f206973206c657373207460008201527f68616e20746865206173736574204d4352000000000000000000000000000000602082015250565b7f6d696e436f6c6c61746572616c526174696f206d75737420626520677265617460008201527f6572207468616e20313030250000000000000000000000000000000000000000602082015250565b6124d68161215d565b81146124e157600080fd5b50565b6124ed8161216f565b81146124f857600080fd5b50565b6125048161217b565b811461250f57600080fd5b50565b61251b816121a5565b811461252657600080fd5b50565b612532816121af565b811461253d57600080fd5b5056fea26469706673582212200d2f45ec39f4ca9645241d97118755b63a64ecedb1a7d9325b8cb2b501cbfae764736f6c63430008070033",
  "immutableReferences": {},
  "source": "// SPDX-License-Identifier: MIT\npragma solidity >=0.8.0 <0.9.0;\n\nimport \"@openzeppelin/contracts/access/Ownable.sol\";\nimport \"./interfaces/IPriceFeed.sol\";\nimport \"./interfaces/IMint.sol\";\nimport \"./sAsset.sol\";\nimport \"./EUSD.sol\";\n\ncontract Mint is Ownable, IMint {\n\n    struct Asset {\n        address token;\n        uint minCollateralRatio;\n        address priceFeed;\n    }\n\n    struct Position {\n        uint idx;\n        address owner;\n        uint collateralAmount;\n        address assetToken;\n        uint assetAmount;\n    }\n\n    mapping(address => Asset) _assetMap;\n    uint _currentPositionIndex;\n    mapping(uint => Position) _idxPositionMap;\n    address public collateralToken;\n\n\n    constructor(address collateral) {\n        collateralToken = collateral;\n    }\n\n    function registerAsset(address assetToken, uint minCollateralRatio, address priceFeed) external override onlyOwner {\n        require(assetToken != address(0), \"Invalid assetToken address\");\n        require(minCollateralRatio >= 1, \"minCollateralRatio must be greater than 100%\");\n        require(_assetMap[assetToken].token == address(0), \"Asset was already registered\");\n\n        _assetMap[assetToken] = Asset(assetToken, minCollateralRatio, priceFeed);\n    }\n\n    function getPosition(uint positionIndex) external view returns (address, uint, address, uint) {\n        require(positionIndex < _currentPositionIndex, \"Invalid index\");\n        Position storage position = _idxPositionMap[positionIndex];\n        return (position.owner, position.collateralAmount, position.assetToken, position.assetAmount);\n    }\n\n    function getMintAmount(uint collateralAmount, address assetToken, uint collateralRatio) public view returns (uint) {\n        Asset storage asset = _assetMap[assetToken];\n        (int relativeAssetPrice,) = IPriceFeed(asset.priceFeed).getLatestPrice();\n        uint8 decimal = sAsset(assetToken).decimals();\n        uint mintAmount = collateralAmount * (10 ** uint256(decimal)) / uint(relativeAssetPrice) / collateralRatio;\n        return mintAmount;\n    }\n\n    function checkRegistered(address assetToken) public view returns (bool) {\n        return _assetMap[assetToken].token == assetToken;\n    }\n\n    /* TODO: implement your functions here */\n    function openPosition(uint collateralAmount, address assetToken, uint collateralRatio) external override {\n        // Make sure the asset is registered\n        require(checkRegistered(assetToken), \"Asset is not registered\");\n        // the input collateral ratio is not less than the asset MCR\n        Asset storage asset = _assetMap[assetToken];\n        require(collateralRatio >= asset.minCollateralRatio, \"input collateral ratio is less than the asset MCR\");\n        // calculate the number of minted tokens\n        uint mintAmount = getMintAmount(collateralAmount, assetToken, collateralRatio);\n        // transferring tokens\n//        EUSD(msg.sender).approve(address(this), collateralAmount);\n//        EUSD(address(this)).transferFrom(msg.sender, address(this), collateralAmount);\n        sAsset(address(this)).mint(msg.sender, mintAmount);\n        // Create a new position\n        _idxPositionMap[_currentPositionIndex] = Position(_currentPositionIndex, msg.sender, collateralAmount, assetToken, mintAmount);\n        _currentPositionIndex++;\n    }\n\n    function closePosition(uint positionIndex) external override {\n        require(positionIndex < _currentPositionIndex, \"Invalid index\");\n        Position storage position = _idxPositionMap[positionIndex];\n        require(position.owner == msg.sender, \"message sender does not own the position\");\n        // burn these tokens\n        sAsset(address(this)).burn(msg.sender, position.assetAmount);\n        // Transfer EUSD tokens locked in the position to the message sender\n        EUSD(address(this)).transfer(msg.sender, position.collateralAmount);\n        // delete the position at the given index\n        delete _idxPositionMap[positionIndex];\n    }\n\n    function deposit(uint positionIndex, uint collateralAmount) external override {\n        require(positionIndex < _currentPositionIndex, \"Invalid index\");\n        Position storage position = _idxPositionMap[positionIndex];\n        // Make sure the message sender owns the position\n        require(position.owner == msg.sender, \"message sender does not own the position\");\n        // transfer deposited tokens from the sender to the contract\n        EUSD(msg.sender).approve(address(this), collateralAmount);\n        EUSD(address(this)).transferFrom(msg.sender, address(this), collateralAmount);\n        // Add collateral amount\n        position.collateralAmount += collateralAmount;\n    }\n\n    function withdraw(uint positionIndex, uint withdrawAmount) external override {\n        require(positionIndex < _currentPositionIndex, \"Invalid index\");\n        Position storage position = _idxPositionMap[positionIndex];\n        // Make sure the message sender owns the position\n        require(position.owner == msg.sender, \"message sender does not own the position\");\n        // the collateral ratio won't go below the MCR\n        uint collateralAmount = position.collateralAmount - withdrawAmount;\n        Asset storage asset = _assetMap[position.assetToken];\n        require(collateralAmount / position.assetAmount >= asset.minCollateralRatio, \"collateral ratio goes below the MCR\");\n        // Transfer withdrawn tokens from the contract to the sender\n        EUSD(address(this)).transfer(msg.sender, collateralAmount);\n        position.collateralAmount = collateralAmount;\n    }\n\n    function mint(uint positionIndex, uint mintAmount) external override {\n        require(positionIndex < _currentPositionIndex, \"Invalid index\");\n        Position storage position = _idxPositionMap[positionIndex];\n        // Make sure the message sender owns the position\n        require(position.owner == msg.sender, \"message sender does not own the position\");\n        // the collateral ratio won't go below the MCR\n        Asset storage asset = _assetMap[position.assetToken];\n        uint assetAmount = position.assetAmount + mintAmount;\n        require(position.collateralAmount / assetAmount >= asset.minCollateralRatio, \"collateral ratio goes below the MCR\");\n        // mint asset tokens\n        sAsset(address(this)).mint(msg.sender, mintAmount);\n        position.assetAmount = assetAmount;\n    }\n\n    function burn(uint positionIndex, uint burnAmount) external override {\n        require(positionIndex < _currentPositionIndex, \"Invalid index\");\n        Position storage position = _idxPositionMap[positionIndex];\n        // Make sure the message sender owns the position\n        require(position.owner == msg.sender, \"message sender does not own the position\");\n        // burns asset tokens in the position\n        //        Asset storage asset = _assetMap[position.assetToken];\n        uint assetAmount = position.assetAmount - burnAmount;\n        sAsset(address(this)).burn(msg.sender, burnAmount);\n        position.assetAmount = assetAmount;\n    }\n\n\n}",
  "sourcePath": "/Users/sawyer_ren/Documents/RustProject/ece598pv-sp2022/FinalProject/Part2/contracts/Mint.sol",
  "compiler": {
    "name": "solc",
    "version": "0.8.7+commit.e28d00a7.Emscripten.clang"
  },
  "schemaVersion": "3.4.7",
  "updatedAt": "2022-04-14T16:14:47.133Z",
  "devdoc": {
    "kind": "dev",
    "methods": {
      "owner()": {
        "details": "Returns the address of the current owner."
      },
      "renounceOwnership()": {
        "details": "Leaves the contract without owner. It will not be possible to call `onlyOwner` functions anymore. Can only be called by the current owner. NOTE: Renouncing ownership will leave the contract without an owner, thereby removing any functionality that is only available to the owner."
      },
      "transferOwnership(address)": {
        "details": "Transfers ownership of the contract to a new account (`newOwner`). Can only be called by the current owner."
      }
    },
    "version": 1
  },
  "userdoc": {
    "kind": "user",
    "methods": {},
    "version": 1
  }
}