{
  "contractName": "sAsset",
  "abi": [
    {
      "inputs": [
        {
          "internalType": "string",
          "name": "name",
          "type": "string"
        },
        {
          "internalType": "string",
          "name": "symbol",
          "type": "string"
        },
        {
          "internalType": "uint256",
          "name": "initialSupply",
          "type": "uint256"
        }
      ],
      "stateMutability": "nonpayable",
      "type": "constructor"
    },
    {
      "anonymous": false,
      "inputs": [
        {
          "indexed": true,
          "internalType": "address",
          "name": "owner",
          "type": "address"
        },
        {
          "indexed": true,
          "internalType": "address",
          "name": "spender",
          "type": "address"
        },
        {
          "indexed": false,
          "internalType": "uint256",
          "name": "value",
          "type": "uint256"
        }
      ],
      "name": "Approval",
      "type": "event"
    },
    {
      "anonymous": false,
      "inputs": [
        {
          "indexed": true,
          "internalType": "bytes32",
          "name": "role",
          "type": "bytes32"
        },
        {
          "indexed": true,
          "internalType": "bytes32",
          "name": "previousAdminRole",
          "type": "bytes32"
        },
        {
          "indexed": true,
          "internalType": "bytes32",
          "name": "newAdminRole",
          "type": "bytes32"
        }
      ],
      "name": "RoleAdminChanged",
      "type": "event"
    },
    {
      "anonymous": false,
      "inputs": [
        {
          "indexed": true,
          "internalType": "bytes32",
          "name": "role",
          "type": "bytes32"
        },
        {
          "indexed": true,
          "internalType": "address",
          "name": "account",
          "type": "address"
        },
        {
          "indexed": true,
          "internalType": "address",
          "name": "sender",
          "type": "address"
        }
      ],
      "name": "RoleGranted",
      "type": "event"
    },
    {
      "anonymous": false,
      "inputs": [
        {
          "indexed": true,
          "internalType": "bytes32",
          "name": "role",
          "type": "bytes32"
        },
        {
          "indexed": true,
          "internalType": "address",
          "name": "account",
          "type": "address"
        },
        {
          "indexed": true,
          "internalType": "address",
          "name": "sender",
          "type": "address"
        }
      ],
      "name": "RoleRevoked",
      "type": "event"
    },
    {
      "anonymous": false,
      "inputs": [
        {
          "indexed": true,
          "internalType": "address",
          "name": "from",
          "type": "address"
        },
        {
          "indexed": true,
          "internalType": "address",
          "name": "to",
          "type": "address"
        },
        {
          "indexed": false,
          "internalType": "uint256",
          "name": "value",
          "type": "uint256"
        }
      ],
      "name": "Transfer",
      "type": "event"
    },
    {
      "anonymous": false,
      "inputs": [
        {
          "indexed": false,
          "internalType": "address",
          "name": "from",
          "type": "address"
        },
        {
          "indexed": false,
          "internalType": "uint256",
          "name": "amount",
          "type": "uint256"
        }
      ],
      "name": "burnToken",
      "type": "event"
    },
    {
      "anonymous": false,
      "inputs": [
        {
          "indexed": false,
          "internalType": "address",
          "name": "to",
          "type": "address"
        },
        {
          "indexed": false,
          "internalType": "uint256",
          "name": "amount",
          "type": "uint256"
        }
      ],
      "name": "mintToken",
      "type": "event"
    },
    {
      "inputs": [],
      "name": "BURNER_ROLE",
      "outputs": [
        {
          "internalType": "bytes32",
          "name": "",
          "type": "bytes32"
        }
      ],
      "stateMutability": "view",
      "type": "function",
      "constant": true
    },
    {
      "inputs": [],
      "name": "DEFAULT_ADMIN_ROLE",
      "outputs": [
        {
          "internalType": "bytes32",
          "name": "",
          "type": "bytes32"
        }
      ],
      "stateMutability": "view",
      "type": "function",
      "constant": true
    },
    {
      "inputs": [],
      "name": "MINTER_ROLE",
      "outputs": [
        {
          "internalType": "bytes32",
          "name": "",
          "type": "bytes32"
        }
      ],
      "stateMutability": "view",
      "type": "function",
      "constant": true
    },
    {
      "inputs": [
        {
          "internalType": "address",
          "name": "owner",
          "type": "address"
        },
        {
          "internalType": "address",
          "name": "spender",
          "type": "address"
        }
      ],
      "name": "allowance",
      "outputs": [
        {
          "internalType": "uint256",
          "name": "",
          "type": "uint256"
        }
      ],
      "stateMutability": "view",
      "type": "function",
      "constant": true
    },
    {
      "inputs": [
        {
          "internalType": "address",
          "name": "spender",
          "type": "address"
        },
        {
          "internalType": "uint256",
          "name": "amount",
          "type": "uint256"
        }
      ],
      "name": "approve",
      "outputs": [
        {
          "internalType": "bool",
          "name": "",
          "type": "bool"
        }
      ],
      "stateMutability": "nonpayable",
      "type": "function"
    },
    {
      "inputs": [
        {
          "internalType": "address",
          "name": "account",
          "type": "address"
        }
      ],
      "name": "balanceOf",
      "outputs": [
        {
          "internalType": "uint256",
          "name": "",
          "type": "uint256"
        }
      ],
      "stateMutability": "view",
      "type": "function",
      "constant": true
    },
    {
      "inputs": [
        {
          "internalType": "address",
          "name": "spender",
          "type": "address"
        },
        {
          "internalType": "uint256",
          "name": "subtractedValue",
          "type": "uint256"
        }
      ],
      "name": "decreaseAllowance",
      "outputs": [
        {
          "internalType": "bool",
          "name": "",
          "type": "bool"
        }
      ],
      "stateMutability": "nonpayable",
      "type": "function"
    },
    {
      "inputs": [
        {
          "internalType": "bytes32",
          "name": "role",
          "type": "bytes32"
        }
      ],
      "name": "getRoleAdmin",
      "outputs": [
        {
          "internalType": "bytes32",
          "name": "",
          "type": "bytes32"
        }
      ],
      "stateMutability": "view",
      "type": "function",
      "constant": true
    },
    {
      "inputs": [
        {
          "internalType": "bytes32",
          "name": "role",
          "type": "bytes32"
        },
        {
          "internalType": "address",
          "name": "account",
          "type": "address"
        }
      ],
      "name": "grantRole",
      "outputs": [],
      "stateMutability": "nonpayable",
      "type": "function"
    },
    {
      "inputs": [
        {
          "internalType": "bytes32",
          "name": "role",
          "type": "bytes32"
        },
        {
          "internalType": "address",
          "name": "account",
          "type": "address"
        }
      ],
      "name": "hasRole",
      "outputs": [
        {
          "internalType": "bool",
          "name": "",
          "type": "bool"
        }
      ],
      "stateMutability": "view",
      "type": "function",
      "constant": true
    },
    {
      "inputs": [
        {
          "internalType": "address",
          "name": "spender",
          "type": "address"
        },
        {
          "internalType": "uint256",
          "name": "addedValue",
          "type": "uint256"
        }
      ],
      "name": "increaseAllowance",
      "outputs": [
        {
          "internalType": "bool",
          "name": "",
          "type": "bool"
        }
      ],
      "stateMutability": "nonpayable",
      "type": "function"
    },
    {
      "inputs": [],
      "name": "name",
      "outputs": [
        {
          "internalType": "string",
          "name": "",
          "type": "string"
        }
      ],
      "stateMutability": "view",
      "type": "function",
      "constant": true
    },
    {
      "inputs": [
        {
          "internalType": "bytes32",
          "name": "role",
          "type": "bytes32"
        },
        {
          "internalType": "address",
          "name": "account",
          "type": "address"
        }
      ],
      "name": "renounceRole",
      "outputs": [],
      "stateMutability": "nonpayable",
      "type": "function"
    },
    {
      "inputs": [
        {
          "internalType": "bytes32",
          "name": "role",
          "type": "bytes32"
        },
        {
          "internalType": "address",
          "name": "account",
          "type": "address"
        }
      ],
      "name": "revokeRole",
      "outputs": [],
      "stateMutability": "nonpayable",
      "type": "function"
    },
    {
      "inputs": [
        {
          "internalType": "bytes4",
          "name": "interfaceId",
          "type": "bytes4"
        }
      ],
      "name": "supportsInterface",
      "outputs": [
        {
          "internalType": "bool",
          "name": "",
          "type": "bool"
        }
      ],
      "stateMutability": "view",
      "type": "function",
      "constant": true
    },
    {
      "inputs": [],
      "name": "symbol",
      "outputs": [
        {
          "internalType": "string",
          "name": "",
          "type": "string"
        }
      ],
      "stateMutability": "view",
      "type": "function",
      "constant": true
    },
    {
      "inputs": [],
      "name": "totalSupply",
      "outputs": [
        {
          "internalType": "uint256",
          "name": "",
          "type": "uint256"
        }
      ],
      "stateMutability": "view",
      "type": "function",
      "constant": true
    },
    {
      "inputs": [
        {
          "internalType": "address",
          "name": "to",
          "type": "address"
        },
        {
          "internalType": "uint256",
          "name": "amount",
          "type": "uint256"
        }
      ],
      "name": "transfer",
      "outputs": [
        {
          "internalType": "bool",
          "name": "",
          "type": "bool"
        }
      ],
      "stateMutability": "nonpayable",
      "type": "function"
    },
    {
      "inputs": [
        {
          "internalType": "address",
          "name": "from",
          "type": "address"
        },
        {
          "internalType": "address",
          "name": "to",
          "type": "address"
        },
        {
          "internalType": "uint256",
          "name": "amount",
          "type": "uint256"
        }
      ],
      "name": "transferFrom",
      "outputs": [
        {
          "internalType": "bool",
          "name": "",
          "type": "bool"
        }
      ],
      "stateMutability": "nonpayable",
      "type": "function"
    },
    {
      "inputs": [
        {
          "internalType": "address",
          "name": "to",
          "type": "address"
        },
        {
          "internalType": "uint256",
          "name": "amount",
          "type": "uint256"
        }
      ],
      "name": "mint",
      "outputs": [],
      "stateMutability": "nonpayable",
      "type": "function"
    },
    {
      "inputs": [
        {
          "internalType": "address",
          "name": "from",
          "type": "address"
        },
        {
          "internalType": "uint256",
          "name": "amount",
          "type": "uint256"
        }
      ],
      "name": "burn",
      "outputs": [],
      "stateMutability": "nonpayable",
      "type": "function"
    },
    {
      "inputs": [],
      "name": "decimals",
      "outputs": [
        {
          "internalType": "uint8",
          "name": "",
          "type": "uint8"
        }
      ],
      "stateMutability": "view",
      "type": "function",
      "constant": true
    }
  ],
  "bytecode": "0x60806040523480156200001157600080fd5b506040516200319e3803806200319e833981810160405281019062000037919062000516565b8282816003908051906020019062000051929190620003d1565b5080600490805190602001906200006a929190620003d1565b505050620000ac3362000082620000ca60201b60201c565b60ff16600a6200009391906200074f565b83620000a091906200088c565b620000d360201b60201c565b620000c16000801b336200024c60201b60201c565b50505062000a9b565b60006008905090565b600073ffffffffffffffffffffffffffffffffffffffff168273ffffffffffffffffffffffffffffffffffffffff16141562000146576040517f08c379a00000000000000000000000000000000000000000000000000000000081526004016200013d90620005e8565b60405180910390fd5b6200015a600083836200026260201b60201c565b80600260008282546200016e919062000697565b92505081905550806000808473ffffffffffffffffffffffffffffffffffffffff1673ffffffffffffffffffffffffffffffffffffffff1681526020019081526020016000206000828254620001c5919062000697565b925050819055508173ffffffffffffffffffffffffffffffffffffffff16600073ffffffffffffffffffffffffffffffffffffffff167fddf252ad1be2c89b69c2b068fc378daa952ba7f163c4a11628f55a4df523b3ef836040516200022c91906200060a565b60405180910390a362000248600083836200026760201b60201c565b5050565b6200025e82826200026c60201b60201c565b5050565b505050565b505050565b6200027e82826200035e60201b60201c565b6200035a5760016005600084815260200190815260200160002060000160008373ffffffffffffffffffffffffffffffffffffffff1673ffffffffffffffffffffffffffffffffffffffff16815260200190815260200160002060006101000a81548160ff021916908315150217905550620002ff620003c960201b60201c565b73ffffffffffffffffffffffffffffffffffffffff168173ffffffffffffffffffffffffffffffffffffffff16837f2f8788117e7eff1d82e926ec794901d17c78024a50270940304540a733656f0d60405160405180910390a45b5050565b60006005600084815260200190815260200160002060000160008373ffffffffffffffffffffffffffffffffffffffff1673ffffffffffffffffffffffffffffffffffffffff16815260200190815260200160002060009054906101000a900460ff16905092915050565b600033905090565b828054620003df906200092d565b90600052602060002090601f0160209004810192826200040357600085556200044f565b82601f106200041e57805160ff19168380011785556200044f565b828001600101855582156200044f579182015b828111156200044e57825182559160200191906001019062000431565b5b5090506200045e919062000462565b5090565b5b808211156200047d57600081600090555060010162000463565b5090565b600062000498620004928462000650565b62000627565b905082815260208101848484011115620004b757620004b662000a2b565b5b620004c4848285620008f7565b509392505050565b600082601f830112620004e457620004e362000a26565b5b8151620004f684826020860162000481565b91505092915050565b600081519050620005108162000a81565b92915050565b60008060006060848603121562000532576200053162000a35565b5b600084015167ffffffffffffffff81111562000553576200055262000a30565b5b6200056186828701620004cc565b935050602084015167ffffffffffffffff81111562000585576200058462000a30565b5b6200059386828701620004cc565b9250506040620005a686828701620004ff565b9150509250925092565b6000620005bf601f8362000686565b9150620005cc8262000a58565b602082019050919050565b620005e281620008ed565b82525050565b600060208201905081810360008301526200060381620005b0565b9050919050565b6000602082019050620006216000830184620005d7565b92915050565b60006200063362000646565b905062000641828262000963565b919050565b6000604051905090565b600067ffffffffffffffff8211156200066e576200066d620009f7565b5b620006798262000a3a565b9050602081019050919050565b600082825260208201905092915050565b6000620006a482620008ed565b9150620006b183620008ed565b9250827fffffffffffffffffffffffffffffffffffffffffffffffffffffffffffffffff03821115620006e957620006e862000999565b5b828201905092915050565b6000808291508390505b600185111562000746578086048111156200071e576200071d62000999565b5b60018516156200072e5780820291505b80810290506200073e8562000a4b565b9450620006fe565b94509492505050565b60006200075c82620008ed565b91506200076983620008ed565b9250620007987fffffffffffffffffffffffffffffffffffffffffffffffffffffffffffffffff8484620007a0565b905092915050565b600082620007b2576001905062000885565b81620007c2576000905062000885565b8160018114620007db5760028114620007e6576200081c565b600191505062000885565b60ff841115620007fb57620007fa62000999565b5b8360020a91508482111562000815576200081462000999565b5b5062000885565b5060208310610133831016604e8410600b8410161715620008565782820a90508381111562000850576200084f62000999565b5b62000885565b620008658484846001620006f4565b925090508184048111156200087f576200087e62000999565b5b81810290505b9392505050565b60006200089982620008ed565b9150620008a683620008ed565b9250817fffffffffffffffffffffffffffffffffffffffffffffffffffffffffffffffff0483118215151615620008e257620008e162000999565b5b828202905092915050565b6000819050919050565b60005b8381101562000917578082015181840152602081019050620008fa565b8381111562000927576000848401525b50505050565b600060028204905060018216806200094657607f821691505b602082108114156200095d576200095c620009c8565b5b50919050565b6200096e8262000a3a565b810181811067ffffffffffffffff8211171562000990576200098f620009f7565b5b80604052505050565b7f4e487b7100000000000000000000000000000000000000000000000000000000600052601160045260246000fd5b7f4e487b7100000000000000000000000000000000000000000000000000000000600052602260045260246000fd5b7f4e487b7100000000000000000000000000000000000000000000000000000000600052604160045260246000fd5b600080fd5b600080fd5b600080fd5b600080fd5b6000601f19601f8301169050919050565b60008160011c9050919050565b7f45524332303a206d696e7420746f20746865207a65726f206164647265737300600082015250565b62000a8c81620008ed565b811462000a9857600080fd5b50565b6126f38062000aab6000396000f3fe608060405234801561001057600080fd5b50600436106101425760003560e01c806340c10f19116100b8578063a217fddf1161007c578063a217fddf1461039d578063a457c2d7146103bb578063a9059cbb146103eb578063d53913931461041b578063d547741f14610439578063dd62ed3e1461045557610142565b806340c10f19146102e757806370a082311461030357806391d148541461033357806395d89b41146103635780639dc29fac1461038157610142565b8063248a9ca31161010a578063248a9ca314610213578063282c51f3146102435780632f2ff15d14610261578063313ce5671461027d57806336568abe1461029b57806339509351146102b757610142565b806301ffc9a71461014757806306fdde0314610177578063095ea7b31461019557806318160ddd146101c557806323b872dd146101e3575b600080fd5b610161600480360381019061015c9190611a99565b610485565b60405161016e9190611dc8565b60405180910390f35b61017f6104ff565b60405161018c9190611dfe565b60405180910390f35b6101af60048036038101906101aa91906119ec565b610591565b6040516101bc9190611dc8565b60405180910390f35b6101cd6105b4565b6040516101da9190611fa0565b60405180910390f35b6101fd60048036038101906101f89190611999565b6105be565b60405161020a9190611dc8565b60405180910390f35b61022d60048036038101906102289190611a2c565b6105ed565b60405161023a9190611de3565b60405180910390f35b61024b61060d565b6040516102589190611de3565b60405180910390f35b61027b60048036038101906102769190611a59565b610631565b005b61028561065a565b6040516102929190611fbb565b60405180910390f35b6102b560048036038101906102b09190611a59565b610663565b005b6102d160048036038101906102cc91906119ec565b6106e6565b6040516102de9190611dc8565b60405180910390f35b61030160048036038101906102fc91906119ec565b610790565b005b61031d6004803603810190610318919061192c565b61080a565b60405161032a9190611fa0565b60405180910390f35b61034d60048036038101906103489190611a59565b610852565b60405161035a9190611dc8565b60405180910390f35b61036b6108bd565b6040516103789190611dfe565b60405180910390f35b61039b600480360381019061039691906119ec565b61094f565b005b6103a56109c9565b6040516103b29190611de3565b60405180910390f35b6103d560048036038101906103d091906119ec565b6109d0565b6040516103e29190611dc8565b60405180910390f35b610405600480360381019061040091906119ec565b610aba565b6040516104129190611dc8565b60405180910390f35b610423610add565b6040516104309190611de3565b60405180910390f35b610453600480360381019061044e9190611a59565b610b01565b005b61046f600480360381019061046a9190611959565b610b2a565b60405161047c9190611fa0565b60405180910390f35b60007f7965db0b000000000000000000000000000000000000000000000000000000007bffffffffffffffffffffffffffffffffffffffffffffffffffffffff1916827bffffffffffffffffffffffffffffffffffffffffffffffffffffffff191614806104f857506104f782610bb1565b5b9050919050565b60606003805461050e906121c9565b80601f016020809104026020016040519081016040528092919081815260200182805461053a906121c9565b80156105875780601f1061055c57610100808354040283529160200191610587565b820191906000526020600020905b81548152906001019060200180831161056a57829003601f168201915b5050505050905090565b60008061059c610c1b565b90506105a9818585610c23565b600191505092915050565b6000600254905090565b6000806105c9610c1b565b90506105d6858285610dee565b6105e1858585610e7a565b60019150509392505050565b600060056000838152602001908152602001600020600101549050919050565b7f3c11d16cbaffd01df69ce1c404f6340ee057498f5f00246190ea54220576a84881565b61063a826105ed565b61064b81610646610c1b565b6110fb565b6106558383611198565b505050565b60006008905090565b61066b610c1b565b73ffffffffffffffffffffffffffffffffffffffff168173ffffffffffffffffffffffffffffffffffffffff16146106d8576040517f08c379a00000000000000000000000000000000000000000000000000000000081526004016106cf90611f60565b60405180910390fd5b6106e28282611279565b5050565b6000806106f1610c1b565b9050610785818585600160008673ffffffffffffffffffffffffffffffffffffffff1673ffffffffffffffffffffffffffffffffffffffff16815260200190815260200160002060008973ffffffffffffffffffffffffffffffffffffffff1673ffffffffffffffffffffffffffffffffffffffff168152602001908152602001600020546107809190611ffd565b610c23565b600191505092915050565b7f9f2df0fed2c77648de5860a4cc508cd0818c85b8b8a1ab4ceeef8d981c8956a66107c2816107bd610c1b565b6110fb565b6107cc838361135b565b7f79c65068f81072733b15ab3cba61b23110793f90ab099d228a414b186333a81e83836040516107fd929190611d9f565b60405180910390a1505050565b60008060008373ffffffffffffffffffffffffffffffffffffffff1673ffffffffffffffffffffffffffffffffffffffff168152602001908152602001600020549050919050565b60006005600084815260200190815260200160002060000160008373ffffffffffffffffffffffffffffffffffffffff1673ffffffffffffffffffffffffffffffffffffffff16815260200190815260200160002060009054906101000a900460ff16905092915050565b6060600480546108cc906121c9565b80601f01602080910402602001604051908101604052809291908181526020018280546108f8906121c9565b80156109455780601f1061091a57610100808354040283529160200191610945565b820191906000526020600020905b81548152906001019060200180831161092857829003601f168201915b5050505050905090565b7f3c11d16cbaffd01df69ce1c404f6340ee057498f5f00246190ea54220576a8486109818161097c610c1b565b6110fb565b61098b83836114bb565b7fd1df306c742159c188c29d2c167874a39b84fd0f96f794ad7ea53295680ec1c583836040516109bc929190611d9f565b60405180910390a1505050565b6000801b81565b6000806109db610c1b565b90506000600160008373ffffffffffffffffffffffffffffffffffffffff1673ffffffffffffffffffffffffffffffffffffffff16815260200190815260200160002060008673ffffffffffffffffffffffffffffffffffffffff1673ffffffffffffffffffffffffffffffffffffffff16815260200190815260200160002054905083811015610aa1576040517f08c379a0000000000000000000000000000000000000000000000000000000008152600401610a9890611f40565b60405180910390fd5b610aae8286868403610c23565b60019250505092915050565b600080610ac5610c1b565b9050610ad2818585610e7a565b600191505092915050565b7f9f2df0fed2c77648de5860a4cc508cd0818c85b8b8a1ab4ceeef8d981c8956a681565b610b0a826105ed565b610b1b81610b16610c1b565b6110fb565b610b258383611279565b505050565b6000600160008473ffffffffffffffffffffffffffffffffffffffff1673ffffffffffffffffffffffffffffffffffffffff16815260200190815260200160002060008373ffffffffffffffffffffffffffffffffffffffff1673ffffffffffffffffffffffffffffffffffffffff16815260200190815260200160002054905092915050565b60007f01ffc9a7000000000000000000000000000000000000000000000000000000007bffffffffffffffffffffffffffffffffffffffffffffffffffffffff1916827bffffffffffffffffffffffffffffffffffffffffffffffffffffffff1916149050919050565b600033905090565b600073ffffffffffffffffffffffffffffffffffffffff168373ffffffffffffffffffffffffffffffffffffffff161415610c93576040517f08c379a0000000000000000000000000000000000000000000000000000000008152600401610c8a90611f20565b60405180910390fd5b600073ffffffffffffffffffffffffffffffffffffffff168273ffffffffffffffffffffffffffffffffffffffff161415610d03576040517f08c379a0000000000000000000000000000000000000000000000000000000008152600401610cfa90611e80565b60405180910390fd5b80600160008573ffffffffffffffffffffffffffffffffffffffff1673ffffffffffffffffffffffffffffffffffffffff16815260200190815260200160002060008473ffffffffffffffffffffffffffffffffffffffff1673ffffffffffffffffffffffffffffffffffffffff168152602001908152602001600020819055508173ffffffffffffffffffffffffffffffffffffffff168373ffffffffffffffffffffffffffffffffffffffff167f8c5be1e5ebec7d5bd14f71427d1e84f3dd0314c0f7b2291e5b200ac8c7c3b92583604051610de19190611fa0565b60405180910390a3505050565b6000610dfa8484610b2a565b90507fffffffffffffffffffffffffffffffffffffffffffffffffffffffffffffffff8114610e745781811015610e66576040517f08c379a0000000000000000000000000000000000000000000000000000000008152600401610e5d90611ea0565b60405180910390fd5b610e738484848403610c23565b5b50505050565b600073ffffffffffffffffffffffffffffffffffffffff168373ffffffffffffffffffffffffffffffffffffffff161415610eea576040517f08c379a0000000000000000000000000000000000000000000000000000000008152600401610ee190611f00565b60405180910390fd5b600073ffffffffffffffffffffffffffffffffffffffff168273ffffffffffffffffffffffffffffffffffffffff161415610f5a576040517f08c379a0000000000000000000000000000000000000000000000000000000008152600401610f5190611e40565b60405180910390fd5b610f65838383611692565b60008060008573ffffffffffffffffffffffffffffffffffffffff1673ffffffffffffffffffffffffffffffffffffffff16815260200190815260200160002054905081811015610feb576040517f08c379a0000000000000000000000000000000000000000000000000000000008152600401610fe290611ec0565b60405180910390fd5b8181036000808673ffffffffffffffffffffffffffffffffffffffff1673ffffffffffffffffffffffffffffffffffffffff16815260200190815260200160002081905550816000808573ffffffffffffffffffffffffffffffffffffffff1673ffffffffffffffffffffffffffffffffffffffff168152602001908152602001600020600082825461107e9190611ffd565b925050819055508273ffffffffffffffffffffffffffffffffffffffff168473ffffffffffffffffffffffffffffffffffffffff167fddf252ad1be2c89b69c2b068fc378daa952ba7f163c4a11628f55a4df523b3ef846040516110e29190611fa0565b60405180910390a36110f5848484611697565b50505050565b6111058282610852565b6111945761112a8173ffffffffffffffffffffffffffffffffffffffff16601461169c565b6111388360001c602061169c565b604051602001611149929190611d65565b6040516020818303038152906040526040517f08c379a000000000000000000000000000000000000000000000000000000000815260040161118b9190611dfe565b60405180910390fd5b5050565b6111a28282610852565b6112755760016005600084815260200190815260200160002060000160008373ffffffffffffffffffffffffffffffffffffffff1673ffffffffffffffffffffffffffffffffffffffff16815260200190815260200160002060006101000a81548160ff02191690831515021790555061121a610c1b565b73ffffffffffffffffffffffffffffffffffffffff168173ffffffffffffffffffffffffffffffffffffffff16837f2f8788117e7eff1d82e926ec794901d17c78024a50270940304540a733656f0d60405160405180910390a45b5050565b6112838282610852565b156113575760006005600084815260200190815260200160002060000160008373ffffffffffffffffffffffffffffffffffffffff1673ffffffffffffffffffffffffffffffffffffffff16815260200190815260200160002060006101000a81548160ff0219169083151502179055506112fc610c1b565b73ffffffffffffffffffffffffffffffffffffffff168173ffffffffffffffffffffffffffffffffffffffff16837ff6391f5c32d9c69d2a47ea670b442974b53935d1edc7fd64eb21e047a839171b60405160405180910390a45b5050565b600073ffffffffffffffffffffffffffffffffffffffff168273ffffffffffffffffffffffffffffffffffffffff1614156113cb576040517f08c379a00000000000000000000000000000000000000000000000000000000081526004016113c290611f80565b60405180910390fd5b6113d760008383611692565b80600260008282546113e99190611ffd565b92505081905550806000808473ffffffffffffffffffffffffffffffffffffffff1673ffffffffffffffffffffffffffffffffffffffff168152602001908152602001600020600082825461143e9190611ffd565b925050819055508173ffffffffffffffffffffffffffffffffffffffff16600073ffffffffffffffffffffffffffffffffffffffff167fddf252ad1be2c89b69c2b068fc378daa952ba7f163c4a11628f55a4df523b3ef836040516114a39190611fa0565b60405180910390a36114b760008383611697565b5050565b600073ffffffffffffffffffffffffffffffffffffffff168273ffffffffffffffffffffffffffffffffffffffff16141561152b576040517f08c379a000000000000000000000000000000000000000000000000000000000815260040161152290611ee0565b60405180910390fd5b61153782600083611692565b60008060008473ffffffffffffffffffffffffffffffffffffffff1673ffffffffffffffffffffffffffffffffffffffff168152602001908152602001600020549050818110156115bd576040517f08c379a00000000000000000000000000000000000000000000000000000000081526004016115b490611e60565b60405180910390fd5b8181036000808573ffffffffffffffffffffffffffffffffffffffff1673ffffffffffffffffffffffffffffffffffffffff16815260200190815260200160002081905550816002600082825461161491906120ad565b92505081905550600073ffffffffffffffffffffffffffffffffffffffff168373ffffffffffffffffffffffffffffffffffffffff167fddf252ad1be2c89b69c2b068fc378daa952ba7f163c4a11628f55a4df523b3ef846040516116799190611fa0565b60405180910390a361168d83600084611697565b505050565b505050565b505050565b6060600060028360026116af9190612053565b6116b99190611ffd565b67ffffffffffffffff8111156116d2576116d1612288565b5b6040519080825280601f01601f1916602001820160405280156117045781602001600182028036833780820191505090505b5090507f30000000000000000000000000000000000000000000000000000000000000008160008151811061173c5761173b612259565b5b60200101907effffffffffffffffffffffffffffffffffffffffffffffffffffffffffffff1916908160001a9053507f7800000000000000000000000000000000000000000000000000000000000000816001815181106117a05761179f612259565b5b60200101907effffffffffffffffffffffffffffffffffffffffffffffffffffffffffffff1916908160001a905350600060018460026117e09190612053565b6117ea9190611ffd565b90505b600181111561188a577f3031323334353637383961626364656600000000000000000000000000000000600f86166010811061182c5761182b612259565b5b1a60f81b82828151811061184357611842612259565b5b60200101907effffffffffffffffffffffffffffffffffffffffffffffffffffffffffffff1916908160001a905350600485901c9450806118839061219f565b90506117ed565b50600084146118ce576040517f08c379a00000000000000000000000000000000000000000000000000000000081526004016118c590611e20565b60405180910390fd5b8091505092915050565b6000813590506118e781612661565b92915050565b6000813590506118fc81612678565b92915050565b6000813590506119118161268f565b92915050565b600081359050611926816126a6565b92915050565b600060208284031215611942576119416122b7565b5b6000611950848285016118d8565b91505092915050565b600080604083850312156119705761196f6122b7565b5b600061197e858286016118d8565b925050602061198f858286016118d8565b9150509250929050565b6000806000606084860312156119b2576119b16122b7565b5b60006119c0868287016118d8565b93505060206119d1868287016118d8565b92505060406119e286828701611917565b9150509250925092565b60008060408385031215611a0357611a026122b7565b5b6000611a11858286016118d8565b9250506020611a2285828601611917565b9150509250929050565b600060208284031215611a4257611a416122b7565b5b6000611a50848285016118ed565b91505092915050565b60008060408385031215611a7057611a6f6122b7565b5b6000611a7e858286016118ed565b9250506020611a8f858286016118d8565b9150509250929050565b600060208284031215611aaf57611aae6122b7565b5b6000611abd84828501611902565b91505092915050565b611acf816120e1565b82525050565b611ade816120f3565b82525050565b611aed816120ff565b82525050565b6000611afe82611fd6565b611b088185611fe1565b9350611b1881856020860161216c565b611b21816122bc565b840191505092915050565b6000611b3782611fd6565b611b418185611ff2565b9350611b5181856020860161216c565b80840191505092915050565b6000611b6a602083611fe1565b9150611b75826122cd565b602082019050919050565b6000611b8d602383611fe1565b9150611b98826122f6565b604082019050919050565b6000611bb0602283611fe1565b9150611bbb82612345565b604082019050919050565b6000611bd3602283611fe1565b9150611bde82612394565b604082019050919050565b6000611bf6601d83611fe1565b9150611c01826123e3565b602082019050919050565b6000611c19602683611fe1565b9150611c248261240c565b604082019050919050565b6000611c3c602183611fe1565b9150611c478261245b565b604082019050919050565b6000611c5f602583611fe1565b9150611c6a826124aa565b604082019050919050565b6000611c82602483611fe1565b9150611c8d826124f9565b604082019050919050565b6000611ca5601783611ff2565b9150611cb082612548565b601782019050919050565b6000611cc8602583611fe1565b9150611cd382612571565b604082019050919050565b6000611ceb601183611ff2565b9150611cf6826125c0565b601182019050919050565b6000611d0e602f83611fe1565b9150611d19826125e9565b604082019050919050565b6000611d31601f83611fe1565b9150611d3c82612638565b602082019050919050565b611d5081612155565b82525050565b611d5f8161215f565b82525050565b6000611d7082611c98565b9150611d7c8285611b2c565b9150611d8782611cde565b9150611d938284611b2c565b91508190509392505050565b6000604082019050611db46000830185611ac6565b611dc16020830184611d47565b9392505050565b6000602082019050611ddd6000830184611ad5565b92915050565b6000602082019050611df86000830184611ae4565b92915050565b60006020820190508181036000830152611e188184611af3565b905092915050565b60006020820190508181036000830152611e3981611b5d565b9050919050565b60006020820190508181036000830152611e5981611b80565b9050919050565b60006020820190508181036000830152611e7981611ba3565b9050919050565b60006020820190508181036000830152611e9981611bc6565b9050919050565b60006020820190508181036000830152611eb981611be9565b9050919050565b60006020820190508181036000830152611ed981611c0c565b9050919050565b60006020820190508181036000830152611ef981611c2f565b9050919050565b60006020820190508181036000830152611f1981611c52565b9050919050565b60006020820190508181036000830152611f3981611c75565b9050919050565b60006020820190508181036000830152611f5981611cbb565b9050919050565b60006020820190508181036000830152611f7981611d01565b9050919050565b60006020820190508181036000830152611f9981611d24565b9050919050565b6000602082019050611fb56000830184611d47565b92915050565b6000602082019050611fd06000830184611d56565b92915050565b600081519050919050565b600082825260208201905092915050565b600081905092915050565b600061200882612155565b915061201383612155565b9250827fffffffffffffffffffffffffffffffffffffffffffffffffffffffffffffffff03821115612048576120476121fb565b5b828201905092915050565b600061205e82612155565b915061206983612155565b9250817fffffffffffffffffffffffffffffffffffffffffffffffffffffffffffffffff04831182151516156120a2576120a16121fb565b5b828202905092915050565b60006120b882612155565b91506120c383612155565b9250828210156120d6576120d56121fb565b5b828203905092915050565b60006120ec82612135565b9050919050565b60008115159050919050565b6000819050919050565b60007fffffffff0000000000000000000000000000000000000000000000000000000082169050919050565b600073ffffffffffffffffffffffffffffffffffffffff82169050919050565b6000819050919050565b600060ff82169050919050565b60005b8381101561218a57808201518184015260208101905061216f565b83811115612199576000848401525b50505050565b60006121aa82612155565b915060008214156121be576121bd6121fb565b5b600182039050919050565b600060028204905060018216806121e157607f821691505b602082108114156121f5576121f461222a565b5b50919050565b7f4e487b7100000000000000000000000000000000000000000000000000000000600052601160045260246000fd5b7f4e487b7100000000000000000000000000000000000000000000000000000000600052602260045260246000fd5b7f4e487b7100000000000000000000000000000000000000000000000000000000600052603260045260246000fd5b7f4e487b7100000000000000000000000000000000000000000000000000000000600052604160045260246000fd5b600080fd5b6000601f19601f8301169050919050565b7f537472696e67733a20686578206c656e67746820696e73756666696369656e74600082015250565b7f45524332303a207472616e7366657220746f20746865207a65726f206164647260008201527f6573730000000000000000000000000000000000000000000000000000000000602082015250565b7f45524332303a206275726e20616d6f756e7420657863656564732062616c616e60008201527f6365000000000000000000000000000000000000000000000000000000000000602082015250565b7f45524332303a20617070726f766520746f20746865207a65726f20616464726560008201527f7373000000000000000000000000000000000000000000000000000000000000602082015250565b7f45524332303a20696e73756666696369656e7420616c6c6f77616e6365000000600082015250565b7f45524332303a207472616e7366657220616d6f756e742065786365656473206260008201527f616c616e63650000000000000000000000000000000000000000000000000000602082015250565b7f45524332303a206275726e2066726f6d20746865207a65726f2061646472657360008201527f7300000000000000000000000000000000000000000000000000000000000000602082015250565b7f45524332303a207472616e736665722066726f6d20746865207a65726f20616460008201527f6472657373000000000000000000000000000000000000000000000000000000602082015250565b7f45524332303a20617070726f76652066726f6d20746865207a65726f2061646460008201527f7265737300000000000000000000000000000000000000000000000000000000602082015250565b7f416363657373436f6e74726f6c3a206163636f756e7420000000000000000000600082015250565b7f45524332303a2064656372656173656420616c6c6f77616e63652062656c6f7760008201527f207a65726f000000000000000000000000000000000000000000000000000000602082015250565b7f206973206d697373696e6720726f6c6520000000000000000000000000000000600082015250565b7f416363657373436f6e74726f6c3a2063616e206f6e6c792072656e6f756e636560008201527f20726f6c657320666f722073656c660000000000000000000000000000000000602082015250565b7f45524332303a206d696e7420746f20746865207a65726f206164647265737300600082015250565b61266a816120e1565b811461267557600080fd5b50565b612681816120ff565b811461268c57600080fd5b50565b61269881612109565b81146126a357600080fd5b50565b6126af81612155565b81146126ba57600080fd5b5056fea2646970667358221220efdfa51dad42e14890fbc6cbf06a19cdd3e1682537fc5b5d4c1f544761006c1064736f6c63430008070033",
  "immutableReferences": {},
  "source": "pragma solidity >=0.8.0 <0.9.0;\n//SPDX-License-Identifier: MIT\n\nimport \"@openzeppelin/contracts/token/ERC20/ERC20.sol\";\nimport \"@openzeppelin/contracts/access/AccessControl.sol\";\n\ncontract sAsset is ERC20, AccessControl {\n    // Create a new role identifier for the minter / burner role\n    bytes32 public constant MINTER_ROLE = keccak256(\"MINTER_ROLE\");\n    bytes32 public constant BURNER_ROLE = keccak256(\"BURNER_ROLE\");    \n    /**\n     * @dev Constructor that gives msg.sender all of existing tokens.\n     */\n    constructor(\n        string memory name,\n        string memory symbol,\n        uint256 initialSupply\n    ) ERC20(name, symbol) {\n        _mint(msg.sender, initialSupply * (10 ** uint256(decimals())));\n        // Grant the contract deployer the default admin role: it will be able\n        // to grant and revoke any roles\n        _setupRole(DEFAULT_ADMIN_ROLE, msg.sender);\n    }\n\n    event mintToken(address to, uint256 amount);\n    event burnToken(address from, uint256 amount);\n\n\n    function mint(address to, uint256 amount) external onlyRole(MINTER_ROLE) {        \n        _mint(to, amount);\n        emit mintToken(to, amount);\n    }\n\n    function burn(address from, uint256 amount) external onlyRole(BURNER_ROLE) {        \n        _burn(from, amount);\n        emit burnToken(from, amount);\n    }\n\n    function decimals() public view virtual override returns (uint8) {\n        return 8;\n    }\n}",
  "sourcePath": "/Users/sawyer_ren/Documents/RustProject/ece598pv-sp2022/FinalProject/Part2/contracts/sAsset.sol",
  "compiler": {
    "name": "solc",
    "version": "0.8.7+commit.e28d00a7.Emscripten.clang"
  },
  "schemaVersion": "3.4.7",
  "updatedAt": "2022-04-14T16:00:25.166Z",
  "networkType": "ethereum",
  "devdoc": {
    "kind": "dev",
    "methods": {
      "allowance(address,address)": {
        "details": "See {IERC20-allowance}."
      },
      "approve(address,uint256)": {
        "details": "See {IERC20-approve}. NOTE: If `amount` is the maximum `uint256`, the allowance is not updated on `transferFrom`. This is semantically equivalent to an infinite approval. Requirements: - `spender` cannot be the zero address."
      },
      "balanceOf(address)": {
        "details": "See {IERC20-balanceOf}."
      },
      "constructor": {
        "details": "Constructor that gives msg.sender all of existing tokens."
      },
      "decimals()": {
        "details": "Returns the number of decimals used to get its user representation. For example, if `decimals` equals `2`, a balance of `505` tokens should be displayed to a user as `5.05` (`505 / 10 ** 2`). Tokens usually opt for a value of 18, imitating the relationship between Ether and Wei. This is the value {ERC20} uses, unless this function is overridden; NOTE: This information is only used for _display_ purposes: it in no way affects any of the arithmetic of the contract, including {IERC20-balanceOf} and {IERC20-transfer}."
      },
      "decreaseAllowance(address,uint256)": {
        "details": "Atomically decreases the allowance granted to `spender` by the caller. This is an alternative to {approve} that can be used as a mitigation for problems described in {IERC20-approve}. Emits an {Approval} event indicating the updated allowance. Requirements: - `spender` cannot be the zero address. - `spender` must have allowance for the caller of at least `subtractedValue`."
      },
      "getRoleAdmin(bytes32)": {
        "details": "Returns the admin role that controls `role`. See {grantRole} and {revokeRole}. To change a role's admin, use {_setRoleAdmin}."
      },
      "grantRole(bytes32,address)": {
        "details": "Grants `role` to `account`. If `account` had not been already granted `role`, emits a {RoleGranted} event. Requirements: - the caller must have ``role``'s admin role."
      },
      "hasRole(bytes32,address)": {
        "details": "Returns `true` if `account` has been granted `role`."
      },
      "increaseAllowance(address,uint256)": {
        "details": "Atomically increases the allowance granted to `spender` by the caller. This is an alternative to {approve} that can be used as a mitigation for problems described in {IERC20-approve}. Emits an {Approval} event indicating the updated allowance. Requirements: - `spender` cannot be the zero address."
      },
      "name()": {
        "details": "Returns the name of the token."
      },
      "renounceRole(bytes32,address)": {
        "details": "Revokes `role` from the calling account. Roles are often managed via {grantRole} and {revokeRole}: this function's purpose is to provide a mechanism for accounts to lose their privileges if they are compromised (such as when a trusted device is misplaced). If the calling account had been revoked `role`, emits a {RoleRevoked} event. Requirements: - the caller must be `account`."
      },
      "revokeRole(bytes32,address)": {
        "details": "Revokes `role` from `account`. If `account` had been granted `role`, emits a {RoleRevoked} event. Requirements: - the caller must have ``role``'s admin role."
      },
      "supportsInterface(bytes4)": {
        "details": "See {IERC165-supportsInterface}."
      },
      "symbol()": {
        "details": "Returns the symbol of the token, usually a shorter version of the name."
      },
      "totalSupply()": {
        "details": "See {IERC20-totalSupply}."
      },
      "transfer(address,uint256)": {
        "details": "See {IERC20-transfer}. Requirements: - `to` cannot be the zero address. - the caller must have a balance of at least `amount`."
      },
      "transferFrom(address,address,uint256)": {
        "details": "See {IERC20-transferFrom}. Emits an {Approval} event indicating the updated allowance. This is not required by the EIP. See the note at the beginning of {ERC20}. NOTE: Does not update the allowance if the current allowance is the maximum `uint256`. Requirements: - `from` and `to` cannot be the zero address. - `from` must have a balance of at least `amount`. - the caller must have allowance for ``from``'s tokens of at least `amount`."
      }
    },
    "version": 1
  },
  "userdoc": {
    "kind": "user",
    "methods": {},
    "version": 1
  }
}